:100000000C9463000C948B000C948B000C948B006C
:100010000C948B000C948B000C948B000C94F504C6
:100020000C948B000C948B000C948B000C948B0024
:100030000C948B000C948B000C948B000C948B0014
:100040000C94CF050C948B000C949D050C947705B3
:100050000C948B000C948B000C948B000C948B00F4
:100060000C948B000C948B000000000024002700EF
:100070002A000000000023002600290000000008DC
:10008000000201000003040700000000000000005F
:10009000010204081020408001020408102001021F
:1000A0000408102000000000250028002B00040494
:1000B0000404040404040202020202020303030310
:1000C00003030200E50711241FBECFEFD8E0DEBF17
:1000D000CDBF21E0A2E4B1E001C01D92AD3FB20767
:1000E000E1F711E0A0E0B1E0E6EAF5E102C0059039
:1000F0000D92A234B107D9F710E0C3E6D0E004C0F6
:100100002197FE010E94D908C236D107C9F70E9483
:1001100019060C94D10A0C940000AF92BF92CF92B2
:10012000DF92EF92FF920F931F93CF93DF936C01B7
:100130007B018B01040F151FEB015E01AE18BF0898
:10014000C017D10759F06991D601ED91FC9101904A
:10015000F081E02DC6010995892B79F7C501DF9162
:10016000CF911F910F91FF90EF90DF90CF90BF90B4
:10017000AF900895CF93DF93FC0144815581608156
:1001800071818BE491E00E948D00EC0142E050E02F
:100190006FE171E08BE491E00E948D008C0F9D1F58
:1001A000DF91CF910895FC01538D448D252F30E0D0
:1001B000842F90E0821B930B541710F0CF96089574
:1001C00001970895FC01918D828D981761F0A28DA1
:1001D000AE0FBF2FB11D5D968C91928D9F5F9F7367
:1001E000928F90E008958FEF9FEF0895FC01918D1D
:1001F000828D981731F0828DE80FF11D858D90E08A
:1002000008958FEF9FEF0895FC01918D228D892F26
:1002100090E0805C9F4F821B91098F73992708950E
:100220008BE491E00E94040121E0892B09F420E095
:10023000822F089580E090E0892B29F00E94100120
:1002400081110C9400000895FC01A48DA80FB92F12
:10025000B11DA35ABF4F2C91848D90E001968F73EE
:100260009927848FA689B7892C93A089B1898C910D
:10027000837080648C93938D848D981306C002885C
:10028000F389E02D80818F7D80830895EF92FF9226
:100290000F931F93CF93DF93EC0181E0888F9B8DA9
:1002A0008C8D98131AC0E889F989808185FF15C063
:1002B0009FB7F894EE89FF896083E889F989808186
:1002C0008370806480839FBF81E090E0DF91CF9155
:1002D0001F910F91FF90EF900895F62E0B8D10E077
:1002E0000F5F1F4F0F731127E02E8C8D8E110CC0E6
:1002F0000FB607FCFACFE889F989808185FFF5CF31
:10030000CE010E942401F1CFEB8DEC0FFD2FF11DEA
:10031000E35AFF4FF0829FB7F8940B8FEA89FB896D
:1003200080818062CFCFCF93DF93EC01888D8823CB
:10033000B9F0AA89BB89E889F9898C9185FD03C048
:10034000808186FD0DC00FB607FCF7CF8C9185FF2D
:10035000F2CF808185FFEDCFCE010E942401E9CF4D
:10036000DF91CF910895833081F028F4813099F0A6
:100370008230A9F008958730A9F08830C9F0843020
:10038000B1F4809180008F7D03C0809180008F77D1
:1003900080938000089584B58F7784BD089584B5D7
:1003A0008F7DFBCF8091B0008F778093B000089550
:1003B0008091B0008F7DF9CFCF93DF93EEE7F0E02F
:1003C0008491E2E9F0E0D491E0EBF0E0C491CC2339
:1003D000A1F081110E94B301EC2FF0E0EE0FFF1F9E
:1003E000EE58FF4FA591B491EC91ED2381E090E0A0
:1003F00009F480E0DF91CF91089580E090E0FACF9A
:100400001F93CF93DF93282F30E0F901E458FF4F7B
:100410008491F901E057FF4FD491F901E255FF4F64
:10042000C491CC23A9F0162F81110E94B301EC2FA7
:10043000F0E0EE0FFF1FEC55FF4FA591B4918FB781
:10044000F894EC91111108C0D095DE23DC938FBF96
:10045000DF91CF911F910895DE2BF8CFCF93DF93DB
:1004600090E0FC01E057FF4F249182559F4FFC0123
:1004700084918823D1F090E0880F991FFC01E859FE
:10048000FF4FA591B491FC01EC55FF4FC591D4915C
:10049000623071F49FB7F8943C91822F809583234A
:1004A0008C93E8812E2B28839FBFDF91CF910895F5
:1004B0008FB7F894EC912E2B2C938FBFF6CF4F92E1
:1004C0005F926F927F928F929F92AF92BF92CF92E4
:1004D000DF92EF92FF920F931F93CF938C016A01EB
:1004E0007B0180910601883099F08F3F09F453C059
:1004F000CF911F910F91FF90EF90DF90CF90BF9021
:10050000AF909F908F907F906F905F904F900895E5
:10051000E2ECF0E0C491C7FDEBCF61E088E00E941F
:100520002E022801712C612CCC23F1F0980150E0AF
:1005300040E0C23009F09EC028013A0164E274EF45
:1005400080E090E00E94BA0849015A0181E0881ACF
:100550009108A108B10895E08FEF88169104A104D5
:10056000B10409F00CF4DFC062E17AE780E090E0CA
:10057000A30192010E94BA0849015A0181E0881A38
:100580009108A108B10896E0C111CDC085B5887F5A
:10059000846085BD84C088E080930601E2ECF0E0D1
:1005A000C491CF3F09F4A4CFC13021F150F0C23043
:1005B00009F43EC0C7FD9CCF61E088E00E942E0296
:1005C000B5CF14BC15BC84B5826084BD85B581608F
:1005D00085BDE6EBF0E0E491F0E0EE0FFF1FEC5597
:1005E000FF4F85919491E8E9F0E0E491E093EC010C
:1005F000C0E093CF10928000109281008091810022
:100600008860809381008091810081608093810067
:10061000E6EBF0E0E491F0E0EE0FFF1FEC55FF4F4A
:1006200085919491E8E9F0E0E491E093EB0175CFD6
:100630001092B0001092B1008091B000826080935F
:10064000B0008091B10081608093B100E6EBF0E0F2
:10065000E491F0E0EE0FFF1FEC55FF4F8591949170
:100660009093EA018093E901E8E9F0E0E491E093F6
:10067000E80153CF60E072E18AE790E00E94BA0897
:1006800049015A0181E0881A9108A108B108C130D6
:1006900031F480918100887F816080938100D8014E
:1006A000AA0FBB1FA70196010E94470828EE33E05E
:1006B00040E050E00E949808C13099F0C23019F132
:1006C000C11116CF87BC2093F5013093F6014093FA
:1006D000F7015093F80180916E00826080936E0064
:1006E00007CF90928900809288002093F101309387
:1006F000F2014093F3015093F40180916F00826006
:1007000080936F00F5CE8092B3002093ED0130937B
:10071000EE014093EF015093F001809170008260F0
:1007200080937000E5CE8091B100887F892B809303
:10073000B100B5CF3FB7F89480914701909148013F
:10074000A0914901B0914A0126B5A89B05C02F3F51
:1007500019F00196A11DB11D3FBFBA2FA92F982FE7
:100760008827BC01CD01620F711D811D911D42E0E2
:10077000660F771F881F991F4A95D1F708958F92AA
:100780009F92AF92BF92CF92DF92EF92FF926B0156
:100790007C010E949A034B015C01C114D104E10465
:1007A000F104B9F00E949A03681979098A099B0932
:1007B000683E73408105910580F321E0C21AD1089B
:1007C000E108F10888EE880E83E0981EA11CB11C98
:1007D000E4CFFF90EF90DF90CF90BF90AF909F90CD
:1007E0008F9008950F931F93CF93DF93EC0188812F
:1007F0009981009759F02A813B812617370730F0FD
:1008000081E0DF91CF911F910F9108958B016F5F70
:100810007F4F0E94040A009759F0998388831B83B5
:100820000A832C813D81232B59F7FC011082E8CFEC
:1008300080E0E7CFCF93DF93EC0188819981009727
:1008400011F00E947B09198218821D821C821B8272
:100850001A82DF91CF9108950F931F93CF93DF9367
:10086000EC010C811D810F5F1F4FB8010E94F20344
:10087000882391F0288139818C819D8162E271E029
:10088000820F931F0E94CA0A1D830C83CE01DF9141
:10089000CF911F910F910895CE010E941A04F6CFB7
:1008A000CF93DF93EC01198218821B821A821D827A
:1008B0001C826DE170E00E94F203811105C0CE013F
:1008C000DF91CF910C941A048DE190E09D838C838D
:1008D00064E271E088819981DF91CF910C94CA0A1A
:1008E000CF92DF92EF92FF920F931F93CF93DF93FC
:1008F000CDB7DEB762970FB6F894DEBF0FBECDBF9F
:100900008C01CB01F80111821082138212821582B0
:1009100014824AE09E012F5F3F4F6901B9010E9496
:100920001208F60101900020E9F731977F01EC18D9
:10093000FD08B701C8010E94F203811112C0C8016D
:100940000E941A0462960FB6F894DEBF0FBECDBFA8
:10095000DF91CF911F910F91FF90EF90DF90CF909B
:100960000895F801F582E482B601808191810E94A8
:10097000CA0AE8CFEF92FF920F931F93CF93DF93B2
:10098000EC01FB01E080F180E114F10411F104813C
:10099000158101151105A9F08C819D81080F191F82
:1009A000B801CE010E94F203882399F02881398191
:1009B0008C819D81B701820F931F0E94CA0A1D83FB
:1009C0000C83CE01DF91CF911F910F91FF90EF909B
:1009D0000895CE010E941A04F4CFFC018081918118
:1009E000009711F00C947B0908951F920F920FB697
:1009F0000F9211242F933F934F935F936F937F93A5
:100A00008F939F93AF93BF93EF93FF938091ED01EB
:100A10009091EE01A091EF01B091F001892B8A2B0A
:100A20008B2BD1F19091E801E091E901F091EA017D
:100A30008081892780838091ED019091EE01A091C2
:100A4000EF01B091F001181619061A061B069CF466
:100A50008091ED019091EE01A091EF01B091F00134
:100A60000197A109B1098093ED019093EE01A09344
:100A7000EF01B093F001FF91EF91BF91AF919F9182
:100A80008F917F916F915F914F913F912F910F9037
:100A90000FBE0F901F90189580910601E2ECF0E0D8
:100AA000E4919FEF90930601E13051F030F0E23095
:100AB00069F060E00E940002DECF10926E00F9CF74
:100AC00090916F009D7F90936F00F3CF9091700095
:100AD0009D7F9093700091E09093B0009091B10051
:100AE000987F94609093B1001092B300E2CF1F9270
:100AF0000F920FB60F9211242F933F934F935F9352
:100B00006F937F938F939F93AF93BF93EF93FF93D5
:100B10008BE491E00E942401FF91EF91BF91AF918E
:100B20009F918F917F916F915F914F913F912F9105
:100B30000F900FBE0F901F9018951F920F920FB637
:100B40000F9211242F938F939F93EF93FF93E09134
:100B50005B01F0915C018081E0916101F0916201A3
:100B600082FD1BC09081809164018F5F8F73209103
:100B70006501821741F0E0916401F0E0E55BFE4F12
:100B8000958F80936401FF91EF919F918F912F91A9
:100B90000F900FBE0F901F9018958081F4CF1F9279
:100BA0000F920FB60F9211242F933F938F939F9321
:100BB000AF93BF938091430190914401A09145016F
:100BC000B09146013091420123E0230F2D3758F5B3
:100BD0000196A11DB11D2093420180934301909382
:100BE0004401A0934501B093460180914701909143
:100BF0004801A0914901B0914A010196A11DB11D82
:100C00008093470190934801A0934901B0934A0112
:100C1000BF91AF919F918F913F912F910F900FBEF8
:100C20000F901F90189526E8230F0296A11DB11D65
:100C3000D2CFCF93DF93CDB7DEB72C970FB6F89412
:100C4000DEBF0FBECDBF789484B5826084BD84B50D
:100C5000816084BD85B5826085BD85B5816085BDB7
:100C600080916E00816080936E001092810080916F
:100C700081008260809381008091810081608093F7
:100C80008100809180008160809380008091B1001C
:100C900084608093B1008091B00081608093B00047
:100CA00080917A00846080937A0080917A008260DB
:100CB00080937A0080917A00816080937A0080919D
:100CC0007A00806880937A001092C100E0915B0105
:100CD000F0915C0182E08083E0915701F09158012E
:100CE0001082E0915901F0915A018FEC80831092AB
:100CF0006301E0915F01F091600186E08083E09103
:100D00005D01F0915E01808180618083E0915D01F1
:100D1000F0915E01808188608083E0915D01F091B7
:100D20005E01808180688083E0915D01F0915E01C9
:100D300080818F7D808362E082E00E942E0261E0EC
:100D400083E00E942E0261E084E00E942E0261E0B6
:100D500085E00E942E0261E086E00E942E0261E0A2
:100D600087E00E942E0261E088E00E942E0261E08E
:100D700089E00E942E0261E08AE00E942E0261E07A
:100D80008BE00E942E0261E08CE00E942E0261E066
:100D90008DE00E942E0213E061E0812F0E942E025E
:100DA0001F5F1E30C9F744EF51E060E070E088EC4F
:100DB00090E00E945F026AEF70E080E090E00E94A5
:100DC000BF0344E650E060E070E080E991E00E94FB
:100DD0005F0263E0E62EF12C7DE0C72ED12CE0E02F
:100DE000AE2EE0E0BE2EF0920501E092040180906C
:100DF0000401909005018EE0881691040CF066C005
:100E000088E08816910471F460E088E00E94000296
:100E100080910401909105010196909305018093C2
:100E20000401E5CF61E0882D0E94000200910201DB
:100E300010910301B801012E000C880B990B0E9440
:100E4000BF0360E0882D0E9400020E94DC01892B14
:100E5000F9F66091000170910101660F771F7093A0
:100E6000010160930001C80117FD019695958795D2
:100E70009093030180930201CE0101960E947004B9
:100E8000CE0107960E945004BE016F5F7F4FCE01D6
:100E900007960E94BA040E942C040E94BA00CE0158
:100EA00007960E94ED04CE0101960E94ED0444E6EF
:100EB00050E060E070E080E991E00E945F026CEB3E
:100EC00072E080E090E00E94BF03A2CFD0920501C3
:100ED000C092040100910401109105010330110535
:100EE0000CF467C00830110571F460E088E00E94DE
:100EF00000028091040190910501019790930501F2
:100F000080930401E7CF61E0802F0E94000260918E
:100F1000020170910301072E000C880B990B0E94AF
:100F2000BF0360E0802F0E9400020E94DC01892B39
:100F300001F76091000170910101660F771F7093B6
:100F4000010160930001CE0101960E947004CE0160
:100F500007960E945004BE016F5F7F4FCE01079637
:100F60000E94BA040E942C040E94BA00CE01079687
:100F70000E94ED04CE0101960E94ED0444E650E08B
:100F800060E070E080E991E00E945F0280910201E0
:100F90009091030197FD0196959587959093030194
:100FA000809302016CEB72E080E090E00E94BF034E
:100FB000A0CFA114B10409F416CF0E941001882318
:100FC00009F411CF0E9400000ECFEBE4F1E0138290
:100FD000128288EE93E0A0E0B0E084839583A6833C
:100FE000B78381E191E09183808385EC90E09587E0
:100FF000848784EC90E09787868780EC90E0918BE3
:10100000808B81EC90E0938B828B82EC90E0958BCF
:10101000848B86EC90E0978B868B118E128E138ECC
:10102000148E0895BB274A3031F4992322F4BDE28F
:10103000909581959F4F0C941E08BB27FB01552767
:10104000AA27880F991FAA1FA41710F0A41B839525
:101050005051B9F7A05DAA3308F0A95DA19300979C
:1010600079F7B111B1931192CB010C943708DC01DF
:10107000FC01672F71917723E1F7329704C07C91CF
:101080006D9370836291AE17BF07C8F308950E94F5
:101090008908A59F900DB49F900DA49F800D911D70
:1010A000112408952F923F924F925F926F927F92F8
:1010B0008F929F92AF92BF92CF92DF92EF92FF9268
:1010C0000F931F93CF93DF93CDB7DEB7CA1BDB0B14
:1010D0000FB6F894DEBF0FBECDBF09942A883988B9
:1010E00048885F846E847D848C849B84AA84B984C0
:1010F000C884DF80EE80FD800C811B81AA81B981CC
:10110000CE0FD11D0FB6F894DEBF0FBECDBFED01DF
:101110000895A29FB001B39FC001A39F700D811DD0
:101120001124911DB29F700D811D1124911D0895F0
:10113000A1E21A2EAA1BBB1BFD010DC0AA1FBB1FDB
:10114000EE1FFF1FA217B307E407F50720F0A21B4D
:10115000B30BE40BF50B661F771F881F991F1A94BA
:1011600069F760957095809590959B01AC01BD01E4
:10117000CF010895052E97FB1EF400940E94D1081C
:1011800057FD07D00E94980807FC03D04EF40C943A
:10119000D10850954095309521953F4F4F4F5F4F67
:1011A000089590958095709561957F4F8F4F9F4FD3
:1011B0000895EE0FFF1F0590F491E02D09940F9311
:1011C0001F93CF93DF938230910510F482E090E07B
:1011D000E091FB01F091FC0130E020E0B0E0A0E004
:1011E000309799F42115310509F44AC0281B390BB1
:1011F00024303105D8F58A819B816115710589F10B
:10120000FB0193838283FE0111C0408151810281E1
:10121000138148175907E0F04817590799F41097B8
:1012200061F012960C93129713961C933296CF018D
:10123000DF91CF911F910F9108950093FB011093BF
:10124000FC01F4CF2115310551F04217530738F056
:10125000A901DB019A01BD01DF01F801C1CFEF0156
:10126000F9CF9093FC018093FB01CDCFFE01E20FFB
:10127000F31F819391932250310939832883D7CF6B
:101280002091F9013091FA01232B41F420910901B9
:1012900030910A013093FA012093F901209107015E
:1012A000309108012115310541F42DB73EB7409129
:1012B0000B0150910C01241B350BE091F901F091C9
:1012C000FA01E217F307A0F42E1B3F0B281739078A
:1012D00078F0AC014E5F5F4F2417350748F04E0F92
:1012E0005F1F5093FA014093F901819391939FCF2F
:1012F000F0E0E0E09CCFCF93DF930097E9F0FC01B2
:10130000329713821282A091FB01B091FC01ED0192
:1013100030E020E01097A1F420813181820F931FEB
:101320002091F9013091FA012817390709F061C0BD
:10133000F093FA01E093F901DF91CF910895EA016A
:10134000CE17DF07E8F54A815B819E014115510503
:10135000B1F7E901FB83EA8349915991C40FD51F85
:10136000EC17FD0761F4808191810296840F951F2F
:10137000E90199838883828193819B838A83F0E04A
:10138000E0E012968D919C9113970097B9F52D91FD
:101390003C911197CD010296820F931F2091F90184
:1013A0003091FA012817390739F6309751F5109224
:1013B000FC011092FB01B093FA01A093F901BCCF9C
:1013C000D383C28340815181840F951FC817D907E9
:1013D00061F44E5F5F4F88819981480F591F518397
:1013E00040838A819B81938382832115310509F093
:1013F000B0CFF093FC01E093FB019ECFFD01DC0137
:10140000C0CF13821282D7CFB0E0A0E0EAE0FAE0CA
:101410000C9454088C01009751F4CB010E94DF0812
:101420008C01C801CDB7DEB7E0E10C947008FC0177
:10143000E60FF71F9C0122503109E217F30708F469
:101440009DC0D901CD91DC911197C617D70798F0AF
:10145000C530D10530F3CE0104978617970708F3FE
:10146000C61BD70B2297C193D1936D937C93CF0169
:101470000E947B09D6CF5B01AC1ABD0A4C018C0ED1
:101480009D1EA091FB01B091FC01512C412CF12C2F
:10149000E12C109731F58091F9019091FA018815AE
:1014A000990509F05CC04616570608F058C08091AF
:1014B000070190910801009741F48DB79EB74091C4
:1014C0000B0150910C01841B950BE817F90708F0EC
:1014D00055C0F093FA01E093F901F901718360833B
:1014E000A0CF8D919C91119712966C9012971396A4
:1014F0007C901397A815B90559F56C0142E0C40E0C
:10150000D11CCA14DB0420F1AC014A195B09DA01D1
:101510001296159780F06282738251834083D901BD
:101520006D937C93E114F10471F0D7011396FC9351
:10153000EE93129776CF22968C0F9D1FF90191831F
:101540008083F301EFCFF093FC01E093FB0169CFBF
:101550004816590608F42C017D01D3019ACFCB011E
:101560000E94DF087C01009749F0AE01B8010E949B
:10157000C10AC8010E947B09870153CF10E000E037
:1015800050CFFB01DC0102C001900D924150504050
:10159000D8F70895FB01DC0101900D920020E1F7DE
:0615A0000895F894FFCF4E
:1015A600010064000300FF0000FD01800000000050
:1015B6000046018D00D30093010401E200F6000D00
:1015C6000A0029004661737465722058203220286B
:1015D60043757272656E74205370656564203A2097
:0215E6005800AB
:00000001FF
